{
  "contractName": "Tinder",
  "abi": [
    {
      "anonymous": false,
      "inputs": [
        {
          "indexed": true,
          "internalType": "address",
          "name": "from",
          "type": "address"
        },
        {
          "indexed": true,
          "internalType": "address",
          "name": "to",
          "type": "address"
        },
        {
          "indexed": false,
          "internalType": "uint256",
          "name": "date",
          "type": "uint256"
        }
      ],
      "name": "NewMatch",
      "type": "event"
    },
    {
      "anonymous": false,
      "inputs": [
        {
          "indexed": true,
          "internalType": "address",
          "name": "from",
          "type": "address"
        },
        {
          "indexed": true,
          "internalType": "address",
          "name": "to",
          "type": "address"
        },
        {
          "indexed": false,
          "internalType": "string",
          "name": "content",
          "type": "string"
        },
        {
          "indexed": false,
          "internalType": "uint256",
          "name": "date",
          "type": "uint256"
        }
      ],
      "name": "NewMessage",
      "type": "event"
    },
    {
      "inputs": [
        {
          "internalType": "string",
          "name": "_name",
          "type": "string"
        },
        {
          "internalType": "string",
          "name": "_city",
          "type": "string"
        },
        {
          "internalType": "enum Tinder.Gender",
          "name": "_gender",
          "type": "uint8"
        },
        {
          "internalType": "uint256",
          "name": "_age",
          "type": "uint256"
        },
        {
          "internalType": "string",
          "name": "_picUrl",
          "type": "string"
        }
      ],
      "name": "register",
      "outputs": [],
      "stateMutability": "nonpayable",
      "type": "function"
    },
    {
      "inputs": [],
      "name": "getMatchableUsers",
      "outputs": [
        {
          "components": [
            {
              "internalType": "string",
              "name": "name",
              "type": "string"
            },
            {
              "internalType": "string",
              "name": "city",
              "type": "string"
            },
            {
              "internalType": "enum Tinder.Gender",
              "name": "gender",
              "type": "uint8"
            },
            {
              "internalType": "uint256",
              "name": "age",
              "type": "uint256"
            },
            {
              "internalType": "string",
              "name": "picUrl",
              "type": "string"
            }
          ],
          "internalType": "struct Tinder.User[]",
          "name": "",
          "type": "tuple[]"
        }
      ],
      "stateMutability": "view",
      "type": "function"
    },
    {
      "inputs": [
        {
          "internalType": "enum Tinder.SwipeStatus",
          "name": "_swipeStatus",
          "type": "uint8"
        },
        {
          "internalType": "address",
          "name": "_userId",
          "type": "address"
        }
      ],
      "name": "swipe",
      "outputs": [],
      "stateMutability": "nonpayable",
      "type": "function"
    },
    {
      "inputs": [
        {
          "internalType": "address",
          "name": "_to",
          "type": "address"
        },
        {
          "internalType": "string",
          "name": "_content",
          "type": "string"
        }
      ],
      "name": "sendMessage",
      "outputs": [],
      "stateMutability": "nonpayable",
      "type": "function"
    }
  ],
  "bytecode": "0x608060405234801561001057600080fd5b506122ba806100206000396000f3fe608060405234801561001057600080fd5b506004361061004c5760003560e01c8063985ea4a014610051578063b2c55ce91461006f578063de6f24bb1461008b578063f1ba0f75146100a7575b600080fd5b6100596100c3565b604051610066919061183b565b60405180910390f35b610089600480360381019061008491906118ea565b610739565b005b6100a560048036038101906100a0919061198f565b610ca4565b005b6100c160048036038101906100bc9190611a40565b610fc7565b005b60603360008060008373ffffffffffffffffffffffffffffffffffffffff1673ffffffffffffffffffffffffffffffffffffffff168152602001908152602001600020600301541161014a576040517f08c379a000000000000000000000000000000000000000000000000000000000815260040161014190611b79565b60405180910390fd5b60008060003373ffffffffffffffffffffffffffffffffffffffff1673ffffffffffffffffffffffffffffffffffffffff168152602001908152602001600020905060008060018111156101a1576101a0611691565b5b8260020160009054906101000a900460ff1660018111156101c5576101c4611691565b5b146101d15760006101d4565b60015b60ff169050600060016000846001016040516020016101f39190611c99565b60405160208183030381529060405280519060200120815260200190815260200160002060008381526020019081526020016000209050600080600090505b828054905081101561035957600083828154811061025357610252611cb0565b5b9060005260206000200160009054906101000a900473ffffffffffffffffffffffffffffffffffffffff1690506000600281111561029457610293611691565b5b600260003373ffffffffffffffffffffffffffffffffffffffff1673ffffffffffffffffffffffffffffffffffffffff16815260200190815260200160002060008373ffffffffffffffffffffffffffffffffffffffff1673ffffffffffffffffffffffffffffffffffffffff16815260200190815260200160002060009054906101000a900460ff1660028111156103305761032f611691565b5b141561034557828061034190611d0e565b9350505b50808061035190611d0e565b915050610232565b5060008167ffffffffffffffff81111561037657610375611d57565b5b6040519080825280602002602001820160405280156103af57816020015b61039c6114e8565b8152602001906001900390816103945790505b50905060005b8281101561072c5760008482815481106103d2576103d1611cb0565b5b9060005260206000200160009054906101000a900473ffffffffffffffffffffffffffffffffffffffff1690506000600281111561041357610412611691565b5b600260003373ffffffffffffffffffffffffffffffffffffffff1673ffffffffffffffffffffffffffffffffffffffff16815260200190815260200160002060008373ffffffffffffffffffffffffffffffffffffffff1673ffffffffffffffffffffffffffffffffffffffff16815260200190815260200160002060009054906101000a900460ff1660028111156104af576104ae611691565b5b1415610718576000808273ffffffffffffffffffffffffffffffffffffffff1673ffffffffffffffffffffffffffffffffffffffff1681526020019081526020016000206040518060a001604052908160008201805461050e90611bc8565b80601f016020809104026020016040519081016040528092919081815260200182805461053a90611bc8565b80156105875780601f1061055c57610100808354040283529160200191610587565b820191906000526020600020905b81548152906001019060200180831161056a57829003601f168201915b505050505081526020016001820180546105a090611bc8565b80601f01602080910402602001604051908101604052809291908181526020018280546105cc90611bc8565b80156106195780601f106105ee57610100808354040283529160200191610619565b820191906000526020600020905b8154815290600101906020018083116105fc57829003601f168201915b505050505081526020016002820160009054906101000a900460ff16600181111561064757610646611691565b5b600181111561065957610658611691565b5b81526020016003820154815260200160048201805461067790611bc8565b80601f01602080910402602001604051908101604052809291908181526020018280546106a390611bc8565b80156106f05780601f106106c5576101008083540402835291602001916106f0565b820191906000526020600020905b8154815290600101906020018083116106d357829003601f168201915b50505050508152505083838151811061070c5761070b611cb0565b5b60200260200101819052505b50808061072490611d0e565b9150506103b5565b5080965050505050505090565b3360008060008373ffffffffffffffffffffffffffffffffffffffff1673ffffffffffffffffffffffffffffffffffffffff16815260200190815260200160002060030154116107be576040517f08c379a00000000000000000000000000000000000000000000000000000000081526004016107b590611b79565b60405180910390fd5b8160008060008373ffffffffffffffffffffffffffffffffffffffff1673ffffffffffffffffffffffffffffffffffffffff1681526020019081526020016000206003015411610843576040517f08c379a000000000000000000000000000000000000000000000000000000000815260040161083a90611b79565b60405180910390fd5b6000600281111561085757610856611691565b5b600260003373ffffffffffffffffffffffffffffffffffffffff1673ffffffffffffffffffffffffffffffffffffffff16815260200190815260200160002060008573ffffffffffffffffffffffffffffffffffffffff1673ffffffffffffffffffffffffffffffffffffffff16815260200190815260200160002060009054906101000a900460ff1660028111156108f3576108f2611691565b5b14610933576040517f08c379a000000000000000000000000000000000000000000000000000000000815260040161092a90611df8565b60405180910390fd5b6000600360003373ffffffffffffffffffffffffffffffffffffffff1673ffffffffffffffffffffffffffffffffffffffff16815260200190815260200160002090504262015180826000015461098a9190611e18565b116109a357428160000181905550606481600101819055505b6064816001015411156109eb576040517f08c379a00000000000000000000000000000000000000000000000000000000081526004016109e290611ee0565b60405180910390fd5b806001016000815480929190610a0090611d0e565b9190505550600280811115610a1857610a17611691565b5b856002811115610a2b57610a2a611691565b5b1415610adb5784600260003373ffffffffffffffffffffffffffffffffffffffff1673ffffffffffffffffffffffffffffffffffffffff16815260200190815260200160002060008673ffffffffffffffffffffffffffffffffffffffff1673ffffffffffffffffffffffffffffffffffffffff16815260200190815260200160002060006101000a81548160ff02191690836002811115610ad057610acf611691565b5b021790555050610c9e565b6001600260003373ffffffffffffffffffffffffffffffffffffffff1673ffffffffffffffffffffffffffffffffffffffff16815260200190815260200160002060008673ffffffffffffffffffffffffffffffffffffffff1673ffffffffffffffffffffffffffffffffffffffff16815260200190815260200160002060006101000a81548160ff02191690836002811115610b7b57610b7a611691565b5b021790555060016002811115610b9457610b93611691565b5b600260008673ffffffffffffffffffffffffffffffffffffffff1673ffffffffffffffffffffffffffffffffffffffff16815260200190815260200160002060003373ffffffffffffffffffffffffffffffffffffffff1673ffffffffffffffffffffffffffffffffffffffff16815260200190815260200160002060009054906101000a900460ff166002811115610c3057610c2f611691565b5b1415610c9c578373ffffffffffffffffffffffffffffffffffffffff163373ffffffffffffffffffffffffffffffffffffffff167fe846b994a6e575558985b45176c874d739a96392a33d125f5234e147e68090a142604051610c939190611f0f565b60405180910390a35b505b50505050565b3360008060008373ffffffffffffffffffffffffffffffffffffffff1673ffffffffffffffffffffffffffffffffffffffff1681526020019081526020016000206003015411610d29576040517f08c379a0000000000000000000000000000000000000000000000000000000008152600401610d2090611b79565b60405180910390fd5b8360008060008373ffffffffffffffffffffffffffffffffffffffff1673ffffffffffffffffffffffffffffffffffffffff1681526020019081526020016000206003015411610dae576040517f08c379a0000000000000000000000000000000000000000000000000000000008152600401610da590611b79565b60405180910390fd5b60016002811115610dc257610dc1611691565b5b600260003373ffffffffffffffffffffffffffffffffffffffff1673ffffffffffffffffffffffffffffffffffffffff16815260200190815260200160002060008773ffffffffffffffffffffffffffffffffffffffff1673ffffffffffffffffffffffffffffffffffffffff16815260200190815260200160002060009054906101000a900460ff166002811115610e5e57610e5d611691565b5b148015610f18575060016002811115610e7a57610e79611691565b5b600260008773ffffffffffffffffffffffffffffffffffffffff1673ffffffffffffffffffffffffffffffffffffffff16815260200190815260200160002060003373ffffffffffffffffffffffffffffffffffffffff1673ffffffffffffffffffffffffffffffffffffffff16815260200190815260200160002060009054906101000a900460ff166002811115610f1657610f15611691565b5b145b610f57576040517f08c379a0000000000000000000000000000000000000000000000000000000008152600401610f4e90611f9c565b60405180910390fd5b8473ffffffffffffffffffffffffffffffffffffffff163373ffffffffffffffffffffffffffffffffffffffff167f820e6d37b56b06482f38c0c5918db7d094c4b90fb974528a28d8344079064099868642604051610fb893929190611ff8565b60405180910390a35050505050565b60008060003373ffffffffffffffffffffffffffffffffffffffff1673ffffffffffffffffffffffffffffffffffffffff168152602001908152602001600020600301541461104b576040517f08c379a000000000000000000000000000000000000000000000000000000000815260040161104290612076565b60405180910390fd5b61109888888080601f016020809104026020016040519081016040528093929190818152602001838380828437600081840152601f19601f820116905080830192505050505050506114d5565b156110d8576040517f08c379a00000000000000000000000000000000000000000000000000000000081526004016110cf906120e2565b60405180910390fd5b61112586868080601f016020809104026020016040519081016040528093929190818152602001838380828437600081840152601f19601f820116905080830192505050505050506114d5565b15611165576040517f08c379a000000000000000000000000000000000000000000000000000000000815260040161115c9061214e565b60405180910390fd5b601183116111a8576040517f08c379a000000000000000000000000000000000000000000000000000000000815260040161119f906121ba565b60405180910390fd5b6111f582828080601f016020809104026020016040519081016040528093929190818152602001838380828437600081840152601f19601f820116905080830192505050505050506114d5565b15611235576040517f08c379a000000000000000000000000000000000000000000000000000000000815260040161122c90612226565b60405180910390fd5b6040518060a0016040528089898080601f016020809104026020016040519081016040528093929190818152602001838380828437600081840152601f19601f82011690508083019250505050505050815260200187878080601f016020809104026020016040519081016040528093929190818152602001838380828437600081840152601f19601f8201169050808301925050505050505081526020018560018111156112e7576112e6611691565b5b815260200184815260200183838080601f016020809104026020016040519081016040528093929190818152602001838380828437600081840152601f19601f820116905080830192505050505050508152506000803373ffffffffffffffffffffffffffffffffffffffff1673ffffffffffffffffffffffffffffffffffffffff1681526020019081526020016000206000820151816000019080519060200190611394929190611529565b5060208201518160010190805190602001906113b1929190611529565b5060408201518160020160006101000a81548160ff021916908360018111156113dd576113dc611691565b5b0217905550606082015181600301556080820151816004019080519060200190611408929190611529565b5090505060016000878760405160200161142392919061226b565b604051602081830303815290604052805190602001208152602001908152602001600020600085600181111561145c5761145b611691565b5b8152602001908152602001600020339080600181540180825580915050600190039060005260206000200160009091909190916101000a81548173ffffffffffffffffffffffffffffffffffffffff021916908373ffffffffffffffffffffffffffffffffffffffff1602179055505050505050505050565b6000808290506000815114915050919050565b6040518060a0016040528060608152602001606081526020016000600181111561151557611514611691565b5b815260200160008152602001606081525090565b82805461153590611bc8565b90600052602060002090601f016020900481019282611557576000855561159e565b82601f1061157057805160ff191683800117855561159e565b8280016001018555821561159e579182015b8281111561159d578251825591602001919060010190611582565b5b5090506115ab91906115af565b5090565b5b808211156115c85760008160009055506001016115b0565b5090565b600081519050919050565b600082825260208201905092915050565b6000819050602082019050919050565b600081519050919050565b600082825260208201905092915050565b60005b83811015611632578082015181840152602081019050611617565b83811115611641576000848401525b50505050565b6000601f19601f8301169050919050565b6000611663826115f8565b61166d8185611603565b935061167d818560208601611614565b61168681611647565b840191505092915050565b7f4e487b7100000000000000000000000000000000000000000000000000000000600052602160045260246000fd5b600281106116d1576116d0611691565b5b50565b60008190506116e2826116c0565b919050565b60006116f2826116d4565b9050919050565b611702816116e7565b82525050565b6000819050919050565b61171b81611708565b82525050565b600060a083016000830151848203600086015261173e8282611658565b915050602083015184820360208601526117588282611658565b915050604083015161176d60408601826116f9565b5060608301516117806060860182611712565b50608083015184820360808601526117988282611658565b9150508091505092915050565b60006117b18383611721565b905092915050565b6000602082019050919050565b60006117d1826115cc565b6117db81856115d7565b9350836020820285016117ed856115e8565b8060005b85811015611829578484038952815161180a85826117a5565b9450611815836117b9565b925060208a019950506001810190506117f1565b50829750879550505050505092915050565b6000602082019050818103600083015261185581846117c6565b905092915050565b600080fd5b600080fd5b6003811061187457600080fd5b50565b60008135905061188681611867565b92915050565b600073ffffffffffffffffffffffffffffffffffffffff82169050919050565b60006118b78261188c565b9050919050565b6118c7816118ac565b81146118d257600080fd5b50565b6000813590506118e4816118be565b92915050565b600080604083850312156119015761190061185d565b5b600061190f85828601611877565b9250506020611920858286016118d5565b9150509250929050565b600080fd5b600080fd5b600080fd5b60008083601f84011261194f5761194e61192a565b5b8235905067ffffffffffffffff81111561196c5761196b61192f565b5b60208301915083600182028301111561198857611987611934565b5b9250929050565b6000806000604084860312156119a8576119a761185d565b5b60006119b6868287016118d5565b935050602084013567ffffffffffffffff8111156119d7576119d6611862565b5b6119e386828701611939565b92509250509250925092565b600281106119fc57600080fd5b50565b600081359050611a0e816119ef565b92915050565b611a1d81611708565b8114611a2857600080fd5b50565b600081359050611a3a81611a14565b92915050565b60008060008060008060008060a0898b031215611a6057611a5f61185d565b5b600089013567ffffffffffffffff811115611a7e57611a7d611862565b5b611a8a8b828c01611939565b9850985050602089013567ffffffffffffffff811115611aad57611aac611862565b5b611ab98b828c01611939565b96509650506040611acc8b828c016119ff565b9450506060611add8b828c01611a2b565b935050608089013567ffffffffffffffff811115611afe57611afd611862565b5b611b0a8b828c01611939565b92509250509295985092959890939650565b600082825260208201905092915050565b7f55736572206973206e6f74207265676973746572656400000000000000000000600082015250565b6000611b63601683611b1c565b9150611b6e82611b2d565b602082019050919050565b60006020820190508181036000830152611b9281611b56565b9050919050565b7f4e487b7100000000000000000000000000000000000000000000000000000000600052602260045260246000fd5b60006002820490506001821680611be057607f821691505b60208210811415611bf457611bf3611b99565b5b50919050565b600081905092915050565b60008190508160005260206000209050919050565b60008154611c2781611bc8565b611c318186611bfa565b94506001821660008114611c4c5760018114611c5d57611c90565b60ff19831686528186019350611c90565b611c6685611c05565b60005b83811015611c8857815481890152600182019150602081019050611c69565b838801955050505b50505092915050565b6000611ca58284611c1a565b915081905092915050565b7f4e487b7100000000000000000000000000000000000000000000000000000000600052603260045260246000fd5b7f4e487b7100000000000000000000000000000000000000000000000000000000600052601160045260246000fd5b6000611d1982611708565b91507fffffffffffffffffffffffffffffffffffffffffffffffffffffffffffffffff821415611d4c57611d4b611cdf565b5b600182019050919050565b7f4e487b7100000000000000000000000000000000000000000000000000000000600052604160045260246000fd5b7f43616e206e6f74207377697065207468652073616d6520706572736f6e20747760008201527f6963650000000000000000000000000000000000000000000000000000000000602082015250565b6000611de2602383611b1c565b9150611ded82611d86565b604082019050919050565b60006020820190508181036000830152611e1181611dd5565b9050919050565b6000611e2382611708565b9150611e2e83611708565b9250827fffffffffffffffffffffffffffffffffffffffffffffffffffffffffffffffff03821115611e6357611e62611cdf565b5b828201905092915050565b7f596f75206861766520616c7265616479207573656420757020616c6c20796f7560008201527f722073776970657320666f722074686520646179000000000000000000000000602082015250565b6000611eca603483611b1c565b9150611ed582611e6e565b604082019050919050565b60006020820190508181036000830152611ef981611ebd565b9050919050565b611f0981611708565b82525050565b6000602082019050611f246000830184611f00565b92915050565b7f426f74682075736572206e6565647320746f206d6174636820746f2073656e6460008201527f206d657373616765000000000000000000000000000000000000000000000000602082015250565b6000611f86602883611b1c565b9150611f9182611f2a565b604082019050919050565b60006020820190508181036000830152611fb581611f79565b9050919050565b82818337600083830152505050565b6000611fd78385611b1c565b9350611fe4838584611fbc565b611fed83611647565b840190509392505050565b60006040820190508181036000830152612013818587611fcb565b90506120226020830184611f00565b949350505050565b7f5573657220697320616c72656164792072656769737465726564000000000000600082015250565b6000612060601a83611b1c565b915061206b8261202a565b602082019050919050565b6000602082019050818103600083015261208f81612053565b9050919050565b7f4e616d652063616e6e6f7420626520656d707479000000000000000000000000600082015250565b60006120cc601483611b1c565b91506120d782612096565b602082019050919050565b600060208201905081810360008301526120fb816120bf565b9050919050565b7f436974792063616e6e6f7420626520656d707479000000000000000000000000600082015250565b6000612138601483611b1c565b915061214382612102565b602082019050919050565b600060208201905081810360008301526121678161212b565b9050919050565b7f416765206d757374206265203138206f722061626f7665000000000000000000600082015250565b60006121a4601783611b1c565b91506121af8261216e565b602082019050919050565b600060208201905081810360008301526121d381612197565b9050919050565b7f5069632055726c2063616e6e6f7420626520656d707479000000000000000000600082015250565b6000612210601783611b1c565b915061221b826121da565b602082019050919050565b6000602082019050818103600083015261223f81612203565b9050919050565b60006122528385611bfa565b935061225f838584611fbc565b82840190509392505050565b6000612278828486612246565b9150819050939250505056fea2646970667358221220edb0715b5290b0a34e29ca0ed7a4582e3d26bcad818d1e674b29d0da8c14304e64736f6c634300080b0033",
  "immutableReferences": {},
  "source": "//SPDX-License-Identifier: MIT\npragma solidity ^0.8.0;\n\ncontract Tinder {\n    enum Gender {\n        Male,\n        Female\n    }\n    enum SwipeStatus {\n        Unknown,\n        Like,\n        Dislike\n    }\n    struct User {\n        string name;\n        string city;\n        Gender gender;\n        uint256 age;\n        string picUrl;\n    }\n    struct SwipeSession {\n        uint256 start;\n        uint256 count;\n    }\n    mapping(address => User) private users;\n    mapping(bytes32 => mapping(uint256 => address[])) private userIdsByCity;\n    mapping(address => mapping(address => SwipeStatus)) private swipes;\n    mapping(address => SwipeSession) private swipeSessions;\n\n    event NewMatch(address indexed from, address indexed to, uint256 date);\n\n    event NewMessage(\n        address indexed from,\n        address indexed to,\n        string content,\n        uint256 date\n    );\n\n    modifier userExists(address _userId) {\n        require(users[_userId].age > 0, \"User is not registered\");\n        _;\n    }\n\n    function isEmptyString(string memory _str) internal pure returns (bool) {\n        bytes memory bytesStr = bytes(_str);\n        return bytesStr.length == 0;\n    }\n\n    function register(\n        string calldata _name,\n        string calldata _city,\n        Gender _gender,\n        uint256 _age,\n        string calldata _picUrl\n    ) external {\n        require(users[msg.sender].age == 0, \"User is already registered\");\n        require(!isEmptyString(_name), \"Name cannot be empty\");\n        require(!isEmptyString(_city), \"City cannot be empty\");\n        require(_age > 17, \"Age must be 18 or above\");\n        require(!isEmptyString(_picUrl), \"Pic Url cannot be empty\");\n        users[msg.sender] = User(_name, _city, _gender, _age, _picUrl);\n        userIdsByCity[keccak256(abi.encodePacked((_city)))][uint256(_gender)]\n            .push(msg.sender);\n    }\n\n    function getMatchableUsers()\n        external\n        view\n        userExists(msg.sender)\n        returns (User[] memory)\n    {\n        User storage user = users[msg.sender];\n        uint256 oppositeGender = user.gender == Gender.Male ? 1 : 0;\n        address[] storage userIds = userIdsByCity[\n            keccak256(abi.encodePacked(user.city))\n        ][oppositeGender];\n\n        uint256 matchableUserCount;\n        for (uint256 i = 0; i < userIds.length; i++) {\n            address userId = userIds[i];\n            if (swipes[msg.sender][userId] == SwipeStatus.Unknown) {\n                matchableUserCount++;\n            }\n        }\n\n        User[] memory _users = new User[](matchableUserCount);\n        for (uint256 i = 0; i < matchableUserCount; i++) {\n            address userId = userIds[i];\n            if (swipes[msg.sender][userId] == SwipeStatus.Unknown) {\n                _users[i] = users[userId];\n            }\n        }\n        return _users;\n    }\n\n    function swipe(SwipeStatus _swipeStatus, address _userId)\n        external\n        userExists(msg.sender)\n        userExists(_userId)\n    {\n        require(\n            swipes[msg.sender][_userId] == SwipeStatus.Unknown,\n            \"Can not swipe the same person twice\"\n        );\n\n        SwipeSession storage swipeSession = swipeSessions[msg.sender];\n        if (swipeSession.start + 86400 <= block.timestamp) {\n            swipeSession.start = block.timestamp;\n            swipeSession.count = 100;\n        }\n        require(\n            swipeSession.count <= 100,\n            \"You have already used up all your swipes for the day\"\n        );\n        swipeSession.count++;\n\n        if (_swipeStatus == SwipeStatus.Dislike) {\n            swipes[msg.sender][_userId] = _swipeStatus;\n            return;\n        }\n        swipes[msg.sender][_userId] = SwipeStatus.Like;\n        if (swipes[_userId][msg.sender] == SwipeStatus.Like) {\n            emit NewMatch(msg.sender, _userId, block.timestamp);\n        }\n    }\n\n    function sendMessage(address _to, string calldata _content)\n        external\n        userExists(msg.sender)\n        userExists(_to)\n    {\n        require(\n            swipes[msg.sender][_to] == SwipeStatus.Like &&\n                swipes[_to][msg.sender] == SwipeStatus.Like,\n            \"Both user needs to match to send message\"\n        );\n        emit NewMessage(msg.sender, _to, _content, block.timestamp);\n    }\n}\n",
  "sourcePath": "/Users/jasonha/Desktop/demos/smart_contracts/tinder/smart_contract/contracts/Tinder.sol",
  "compiler": {
    "name": "solc",
    "version": "0.8.11+commit.d7f03943.Emscripten.clang"
  },
  "schemaVersion": "3.4.5",
  "updatedAt": "2022-03-20T16:23:13.085Z",
  "devdoc": {
    "kind": "dev",
    "methods": {},
    "version": 1
  },
  "userdoc": {
    "kind": "user",
    "methods": {},
    "version": 1
  }
}